{
	"_format": "hh-sol-artifact-1",
	"contractName": "AbuseReporting",
	"sourceName": "contracts/ARS.sol",
	"abi": [
		{
			"inputs": [],
			"stateMutability": "nonpayable",
			"type": "constructor"
		},
		{
			"anonymous": false,
			"inputs": [
				{
					"indexed": false,
					"internalType": "uint256",
					"name": "reportId",
					"type": "uint256"
				}
			],
			"name": "ReportSubmitted",
			"type": "event"
		},
		{
			"inputs": [
				{
					"internalType": "uint256",
					"name": "_reportId",
					"type": "uint256"
				}
			],
			"name": "getReport",
			"outputs": [
				{
					"components": [
						{
							"internalType": "string",
							"name": "victimName",
							"type": "string"
						},
						{
							"internalType": "string",
							"name": "phoneNumber",
							"type": "string"
						},
						{
							"internalType": "string",
							"name": "abuseType",
							"type": "string"
						},
						{
							"internalType": "string",
							"name": "gender",
							"type": "string"
						},
						{
							"internalType": "uint256",
							"name": "age",
							"type": "uint256"
						},
						{
							"internalType": "string",
							"name": "incidentLocation",
							"type": "string"
						},
						{
							"internalType": "string",
							"name": "incidentCity",
							"type": "string"
						},
						{
							"internalType": "string",
							"name": "incidentState",
							"type": "string"
						},
						{
							"internalType": "string",
							"name": "incidentDate",
							"type": "string"
						},
						{
							"internalType": "string",
							"name": "description",
							"type": "string"
						},
						{
							"internalType": "string[]",
							"name": "evidence",
							"type": "string[]"
						}
					],
					"internalType": "struct AbuseReporting.Report",
					"name": "",
					"type": "tuple"
				}
			],
			"stateMutability": "view",
			"type": "function"
		},
		{
			"inputs": [],
			"name": "getReportCount",
			"outputs": [
				{
					"internalType": "uint256",
					"name": "",
					"type": "uint256"
				}
			],
			"stateMutability": "view",
			"type": "function"
		},
		{
			"inputs": [
				{
					"components": [
						{
							"internalType": "string",
							"name": "victimName",
							"type": "string"
						},
						{
							"internalType": "string",
							"name": "phoneNumber",
							"type": "string"
						},
						{
							"internalType": "string",
							"name": "abuseType",
							"type": "string"
						},
						{
							"internalType": "string",
							"name": "gender",
							"type": "string"
						},
						{
							"internalType": "uint256",
							"name": "age",
							"type": "uint256"
						},
						{
							"internalType": "string",
							"name": "incidentLocation",
							"type": "string"
						},
						{
							"internalType": "string",
							"name": "incidentCity",
							"type": "string"
						},
						{
							"internalType": "string",
							"name": "incidentState",
							"type": "string"
						},
						{
							"internalType": "string",
							"name": "incidentDate",
							"type": "string"
						},
						{
							"internalType": "string",
							"name": "description",
							"type": "string"
						},
						{
							"internalType": "string[]",
							"name": "evidence",
							"type": "string[]"
						}
					],
					"internalType": "struct AbuseReporting.ReportInput",
					"name": "reportInput",
					"type": "tuple"
				}
			],
			"name": "submitAbuseReport",
			"outputs": [
				{
					"internalType": "uint256",
					"name": "",
					"type": "uint256"
				}
			],
			"stateMutability": "nonpayable",
			"type": "function"
		}
	],
	"bytecode": "0x6080604052348015600f57600080fd5b50336000806101000a81548173ffffffffffffffffffffffffffffffffffffffff021916908373ffffffffffffffffffffffffffffffffffffffff1602179055506117e38061005f6000396000f3fe608060405234801561001057600080fd5b50600436106100415760003560e01c80634e7f9b191461004657806392c3374414610076578063cad9642b146100a6575b600080fd5b610060600480360381019061005b9190610b72565b6100c4565b60405161006d9190610e2e565b60405180910390f35b610090600480360381019061008b9190611299565b6107f0565b60405161009d91906112f1565b60405180910390f35b6100ae6109ea565b6040516100bb91906112f1565b60405180910390f35b6100cc6109f4565b60008054906101000a900473ffffffffffffffffffffffffffffffffffffffff1673ffffffffffffffffffffffffffffffffffffffff163373ffffffffffffffffffffffffffffffffffffffff161461015a576040517f08c379a000000000000000000000000000000000000000000000000000000000815260040161015190611369565b60405180910390fd5b60008211801561016c57506002548211155b6101ab576040517f08c379a00000000000000000000000000000000000000000000000000000000081526004016101a2906113d5565b60405180910390fd5b600180836101b99190611424565b815481106101ca576101c9611458565b5b90600052602060002090600b0201604051806101600160405290816000820180546101f4906114b6565b80601f0160208091040260200160405190810160405280929190818152602001828054610220906114b6565b801561026d5780601f106102425761010080835404028352916020019161026d565b820191906000526020600020905b81548152906001019060200180831161025057829003601f168201915b50505050508152602001600182018054610286906114b6565b80601f01602080910402602001604051908101604052809291908181526020018280546102b2906114b6565b80156102ff5780601f106102d4576101008083540402835291602001916102ff565b820191906000526020600020905b8154815290600101906020018083116102e257829003601f168201915b50505050508152602001600282018054610318906114b6565b80601f0160208091040260200160405190810160405280929190818152602001828054610344906114b6565b80156103915780601f1061036657610100808354040283529160200191610391565b820191906000526020600020905b81548152906001019060200180831161037457829003601f168201915b505050505081526020016003820180546103aa906114b6565b80601f01602080910402602001604051908101604052809291908181526020018280546103d6906114b6565b80156104235780601f106103f857610100808354040283529160200191610423565b820191906000526020600020905b81548152906001019060200180831161040657829003601f168201915b5050505050815260200160048201548152602001600582018054610446906114b6565b80601f0160208091040260200160405190810160405280929190818152602001828054610472906114b6565b80156104bf5780601f10610494576101008083540402835291602001916104bf565b820191906000526020600020905b8154815290600101906020018083116104a257829003601f168201915b505050505081526020016006820180546104d8906114b6565b80601f0160208091040260200160405190810160405280929190818152602001828054610504906114b6565b80156105515780601f1061052657610100808354040283529160200191610551565b820191906000526020600020905b81548152906001019060200180831161053457829003601f168201915b5050505050815260200160078201805461056a906114b6565b80601f0160208091040260200160405190810160405280929190818152602001828054610596906114b6565b80156105e35780601f106105b8576101008083540402835291602001916105e3565b820191906000526020600020905b8154815290600101906020018083116105c657829003601f168201915b505050505081526020016008820180546105fc906114b6565b80601f0160208091040260200160405190810160405280929190818152602001828054610628906114b6565b80156106755780601f1061064a57610100808354040283529160200191610675565b820191906000526020600020905b81548152906001019060200180831161065857829003601f168201915b5050505050815260200160098201805461068e906114b6565b80601f01602080910402602001604051908101604052809291908181526020018280546106ba906114b6565b80156107075780601f106106dc57610100808354040283529160200191610707565b820191906000526020600020905b8154815290600101906020018083116106ea57829003601f168201915b50505050508152602001600a8201805480602002602001604051908101604052809291908181526020016000905b828210156107e1578382906000526020600020018054610754906114b6565b80601f0160208091040260200160405190810160405280929190818152602001828054610780906114b6565b80156107cd5780601f106107a2576101008083540402835291602001916107cd565b820191906000526020600020905b8154815290600101906020018083116107b057829003601f168201915b505050505081526020019060010190610735565b50505050815250509050919050565b60008060405180610160016040528084600001518152602001846020015181526020018460400151815260200184606001518152602001846080015181526020018460a0015181526020018460c0015181526020018460e00151815260200184610100015181526020018461012001518152602001846101400151815250905060018190806001815401808255809150506001900390600052602060002090600b020160009091909190915060008201518160000190816108b19190611693565b5060208201518160010190816108c79190611693565b5060408201518160020190816108dd9190611693565b5060608201518160030190816108f39190611693565b506080820151816004015560a08201518160050190816109139190611693565b5060c08201518160060190816109299190611693565b5060e082015181600701908161093f9190611693565b506101008201518160080190816109569190611693565b5061012082015181600901908161096d9190611693565b5061014082015181600a01908051906020019061098b929190610a4e565b505050600260008154809291906109a190611765565b91905055507f5ad8eb8d3c4965e9c54e6122fe9dfe0170d41720f53de9861b2e0ccd0cd005756002546040516109d791906112f1565b60405180910390a1600254915050919050565b6000600254905090565b60405180610160016040528060608152602001606081526020016060815260200160608152602001600081526020016060815260200160608152602001606081526020016060815260200160608152602001606081525090565b828054828255906000526020600020908101928215610a96579160200282015b82811115610a95578251829081610a859190611693565b5091602001919060010190610a6e565b5b509050610aa39190610aa7565b5090565b5b80821115610ac75760008181610abe9190610acb565b50600101610aa8565b5090565b508054610ad7906114b6565b6000825580601f10610ae95750610b08565b601f016020900490600052602060002090810190610b079190610b0b565b5b50565b5b80821115610b24576000816000905550600101610b0c565b5090565b6000604051905090565b600080fd5b600080fd5b6000819050919050565b610b4f81610b3c565b8114610b5a57600080fd5b50565b600081359050610b6c81610b46565b92915050565b600060208284031215610b8857610b87610b32565b5b6000610b9684828501610b5d565b91505092915050565b600081519050919050565b600082825260208201905092915050565b60005b83811015610bd9578082015181840152602081019050610bbe565b60008484015250505050565b6000601f19601f8301169050919050565b6000610c0182610b9f565b610c0b8185610baa565b9350610c1b818560208601610bbb565b610c2481610be5565b840191505092915050565b610c3881610b3c565b82525050565b600081519050919050565b600082825260208201905092915050565b6000819050602082019050919050565b6000610c768383610bf6565b905092915050565b6000602082019050919050565b6000610c9682610c3e565b610ca08185610c49565b935083602082028501610cb285610c5a565b8060005b85811015610cee5784840389528151610ccf8582610c6a565b9450610cda83610c7e565b925060208a01995050600181019050610cb6565b50829750879550505050505092915050565b6000610160830160008301518482036000860152610d1e8282610bf6565b91505060208301518482036020860152610d388282610bf6565b91505060408301518482036040860152610d528282610bf6565b91505060608301518482036060860152610d6c8282610bf6565b9150506080830151610d816080860182610c2f565b5060a083015184820360a0860152610d998282610bf6565b91505060c083015184820360c0860152610db38282610bf6565b91505060e083015184820360e0860152610dcd8282610bf6565b915050610100830151848203610100860152610de98282610bf6565b915050610120830151848203610120860152610e058282610bf6565b915050610140830151848203610140860152610e218282610c8b565b9150508091505092915050565b60006020820190508181036000830152610e488184610d00565b905092915050565b600080fd5b7f4e487b7100000000000000000000000000000000000000000000000000000000600052604160045260246000fd5b610e8d82610be5565b810181811067ffffffffffffffff82111715610eac57610eab610e55565b5b80604052505050565b6000610ebf610b28565b9050610ecb8282610e84565b919050565b600080fd5b600080fd5b600080fd5b600067ffffffffffffffff821115610efa57610ef9610e55565b5b610f0382610be5565b9050602081019050919050565b82818337600083830152505050565b6000610f32610f2d84610edf565b610eb5565b905082815260208101848484011115610f4e57610f4d610eda565b5b610f59848285610f10565b509392505050565b600082601f830112610f7657610f75610ed5565b5b8135610f86848260208601610f1f565b91505092915050565b600067ffffffffffffffff821115610faa57610fa9610e55565b5b602082029050602081019050919050565b600080fd5b6000610fd3610fce84610f8f565b610eb5565b90508083825260208201905060208402830185811115610ff657610ff5610fbb565b5b835b8181101561103d57803567ffffffffffffffff81111561101b5761101a610ed5565b5b8086016110288982610f61565b85526020850194505050602081019050610ff8565b5050509392505050565b600082601f83011261105c5761105b610ed5565b5b813561106c848260208601610fc0565b91505092915050565b6000610160828403121561108c5761108b610e50565b5b611097610160610eb5565b9050600082013567ffffffffffffffff8111156110b7576110b6610ed0565b5b6110c384828501610f61565b600083015250602082013567ffffffffffffffff8111156110e7576110e6610ed0565b5b6110f384828501610f61565b602083015250604082013567ffffffffffffffff81111561111757611116610ed0565b5b61112384828501610f61565b604083015250606082013567ffffffffffffffff81111561114757611146610ed0565b5b61115384828501610f61565b606083015250608061116784828501610b5d565b60808301525060a082013567ffffffffffffffff81111561118b5761118a610ed0565b5b61119784828501610f61565b60a08301525060c082013567ffffffffffffffff8111156111bb576111ba610ed0565b5b6111c784828501610f61565b60c08301525060e082013567ffffffffffffffff8111156111eb576111ea610ed0565b5b6111f784828501610f61565b60e08301525061010082013567ffffffffffffffff81111561121c5761121b610ed0565b5b61122884828501610f61565b6101008301525061012082013567ffffffffffffffff81111561124e5761124d610ed0565b5b61125a84828501610f61565b6101208301525061014082013567ffffffffffffffff8111156112805761127f610ed0565b5b61128c84828501611047565b6101408301525092915050565b6000602082840312156112af576112ae610b32565b5b600082013567ffffffffffffffff8111156112cd576112cc610b37565b5b6112d984828501611075565b91505092915050565b6112eb81610b3c565b82525050565b600060208201905061130660008301846112e2565b92915050565b600082825260208201905092915050565b7f556e617574686f72697a65642061636365737321210000000000000000000000600082015250565b600061135360158361130c565b915061135e8261131d565b602082019050919050565b6000602082019050818103600083015261138281611346565b9050919050565b7f496e76616c6964207265706f7274204944000000000000000000000000000000600082015250565b60006113bf60118361130c565b91506113ca82611389565b602082019050919050565b600060208201905081810360008301526113ee816113b2565b9050919050565b7f4e487b7100000000000000000000000000000000000000000000000000000000600052601160045260246000fd5b600061142f82610b3c565b915061143a83610b3c565b9250828203905081811115611452576114516113f5565b5b92915050565b7f4e487b7100000000000000000000000000000000000000000000000000000000600052603260045260246000fd5b7f4e487b7100000000000000000000000000000000000000000000000000000000600052602260045260246000fd5b600060028204905060018216806114ce57607f821691505b6020821081036114e1576114e0611487565b5b50919050565b60008190508160005260206000209050919050565b60006020601f8301049050919050565b600082821b905092915050565b6000600883026115497fffffffffffffffffffffffffffffffffffffffffffffffffffffffffffffffff8261150c565b611553868361150c565b95508019841693508086168417925050509392505050565b6000819050919050565b600061159061158b61158684610b3c565b61156b565b610b3c565b9050919050565b6000819050919050565b6115aa83611575565b6115be6115b682611597565b848454611519565b825550505050565b600090565b6115d36115c6565b6115de8184846115a1565b505050565b5b81811015611602576115f76000826115cb565b6001810190506115e4565b5050565b601f82111561164757611618816114e7565b611621846114fc565b81016020851015611630578190505b61164461163c856114fc565b8301826115e3565b50505b505050565b600082821c905092915050565b600061166a6000198460080261164c565b1980831691505092915050565b60006116838383611659565b9150826002028217905092915050565b61169c82610b9f565b67ffffffffffffffff8111156116b5576116b4610e55565b5b6116bf82546114b6565b6116ca828285611606565b600060209050601f8311600181146116fd57600084156116eb578287015190505b6116f58582611677565b86555061175d565b601f19841661170b866114e7565b60005b828110156117335784890151825560018201915060208501945060208101905061170e565b86831015611750578489015161174c601f891682611659565b8355505b6001600288020188555050505b505050505050565b600061177082610b3c565b91507fffffffffffffffffffffffffffffffffffffffffffffffffffffffffffffffff82036117a2576117a16113f5565b5b60018201905091905056fea2646970667358221220cd14adbcebd6572a7e2dc520a1648c270ab353a0b68343f7b0520393ab1fe01a64736f6c634300081b0033",
	"linkReferences": {},
	"deployedLinkReferences": {}
}